:1000000032C03FC03EC03DC096C03BC03AC019C2DE
:10001000EBC137C036C035C034C033C032C031C088
:1000200030C02FC02EC0ACAAA9A5A3A69C9A9995B2
:1000300093968E8D8BB1B2B4B874726C6A69656335
:10004000665C5A595553564E4D4B4771E8E4E2D120
:10005000C9C5D8D4D2C9C6CC78171B1D1E2E363AB6
:10006000272B2D35393311241FBECFEDCDBF20E016
:10007000A0E6B0E001C01D92AB39B207E1F7CAD0EB
:100080005EC2BECF1FBC8BE08EBD80E890E09BBD02
:100090008ABD8AB59BB59695879599BD88BD89B768
:1000A000806489BF7894089598B39F6798BB8F3F09
:1000B00009F440C08823B1F1813019F488B38E7BF4
:1000C00038C0823019F488B3827C33C0833019F48D
:1000D00088B382792EC0843019F488B38C7929C012
:1000E000853019F488B3817924C0863019F488B337
:1000F00081781FC0873019F488B38A7B1AC0883092
:1001000019F488B3807815C0893089F0813819F4E2
:1001100088B3887C0EC0823819F488B3897E09C000
:10012000833819F488B3807A04C0843819F488B30A
:10013000807988BB08951F920F920FB60F921124F9
:100140002F933F934F935F936F937F938F939F93DF
:10015000AF93BF93EF93FF9381E08093600082B3EE
:10016000837C82BB80916100882321F088B38078F2
:1001700088BB1BC0E0916200F0E0EC59FF4F80812A
:1001800093DF809162008F5F80936200813011F471
:10019000929A0BC0823011F4949A07C0833011F404
:1001A000959A03C0939A10926200FF91EF91BF91CC
:1001B000AF919F918F917F916F915F914F913F91FF
:1001C0002F910F900FBE0F901F901895CF93DF9334
:1001D000E4E6F0E020E0CAE0D0E03FEF009721F451
:1001E000222311F0308304C0BE0173D18083CB0180
:1001F0002F5F3196243091F7DF91CF91089580934E
:100200006100089580916000882319F010926000C9
:1002100081E008958FEF87BB81BB18BA12BA81E0E5
:10022000EEDF30DF60E970ED83E090E0AFD0EADF31
:10023000882331F074D07BD0882311F081E0DFDF98
:10024000A2D08823A1F37AD053D0F1CF8F3081F0A0
:10025000803F81F0813E81F0E6E2F0E090E0249181
:10026000821761F09F5F31969034C9F78FEF089540
:1002700081EF089580EF089582EF0895892F089502
:1002800080916800823099F580916B00282F2C7343
:100290002695269590916C009F738295880F880F04
:1002A000807C890F2130E1F4982F907C903871F494
:1002B0008F7390E0982F88272091690030916A0011
:1002C000820F931F90936A008093690080E097DF0C
:1002D0008091690090916A0079DF1092630008951F
:1002E000223029F490E090936A0080936900089589
:1002F000ADDF282F207F90916800203F29F49111D5
:10030000BFDF109268000895943040F4E92FF0E0C8
:10031000E559FF4F80839F5F909368000895809117
:100320006300893C18F48F5F80936300089581E037
:1003300090916300993C08F480E0089580919A00C0
:100340008823E1F3F894E091990080919A00E81BEA
:100350009091990080919A00981708F4EC5DF0E074
:10036000EB58FF4F808190919A00911105C09091B8
:100370009A009C5D90939A0090919A00915090936E
:100380009A007894089580919A000895CF92DF9210
:10039000EF92FF926B017C011BB888E98AB928EFC4
:1003A0003FEF4FEF5FEFC701B6017AD07E5E854821
:1003B0009F4FA7019601E4E0220F331F441F551FF2
:1003C000EA95D1F79AD0BB27A52F942F832F82B916
:1003D00029B9E5E7F0E015A214A210927400FF908D
:1003E000EF90DF90CF9008951F920F920FB60F926B
:1003F00011248F939F93EF93FF93E091730080916B
:100400007400E81B9091730080917400981708F4B1
:10041000EC5FF0E0E159FF4F80818CB9809174006E
:1004200081508093740080917400811101C05598AF
:10043000FF91EF919F918F910F900FBE0F901F90A2
:1004400018951F920F920FB60F9211248F939F93BE
:10045000EF93FF938CB190919A00943218F0109220
:100460009A0015C0E091990091E09E0F9093990039
:10047000F0E0EB58FF4F808380919900843210F0B8
:100480001092990080919A008F5F80939A00FF915B
:10049000EF919F918F910F900FBE0F901F90189525
:1004A000EE27FF27AA27BB2708C0A20FB31FE41F10
:1004B000F51F220F331F441F551F9695879577957B
:1004C000679598F37040A9F7009799F7BD01CF01A0
:1004D0000895AA1BBB1B51E107C0AA1FBB1FA6178B
:1004E000B70710F0A61BB70B881F991F5A95A9F7DD
:1004F00080959095BC01CD010895A1E21A2EAA1B0A
:10050000BB1BFD010DC0AA1FBB1FEE1FFF1FA217C3
:10051000B307E407F50720F0A21BB30BE40BF50BC0
:10052000661F771F881F991F1A9469F76095709549
:10053000809590959B01AC01BD01CF010895F89481
:02054000FFCFEB
:00000001FF
