:1000000012C01FC01EC01DC076C01BC01AC030C3A6
:1000100002C317C016C015C014C013C012C011C04F
:1000200010C00FC00EC011241FBECFEDCDBF20E009
:10003000A0E6B0E001C01D92AB39B207E1F7CAD02B
:1000400095C3DECF1FBC8BE08EBD80E890E09BBDEA
:100050008ABD8AB59BB59695879599BD88BD89B7A8
:10006000806489BF7894089598B39F6798BB8F3F49
:1000700009F440C08823B1F1813019F488B38E7B34
:1000800038C0823019F488B3827C33C0833019F4CD
:1000900088B382792EC0843019F488B38C7929C052
:1000A000853019F488B3817924C0863019F488B377
:1000B00081781FC0873019F488B38A7B1AC08830D2
:1000C00019F488B3807815C0893089F0813819F423
:1000D00088B3887C0EC0823819F488B3897E09C041
:1000E000833819F488B3807A04C0843819F488B34B
:1000F000807988BB08951F920F920FB60F9211243A
:100100002F933F934F935F936F937F938F939F931F
:10011000AF93BF93EF93FF9381E08093600082B32E
:10012000837C82BB80916100882321F088B3807832
:1001300088BB1BC0E0916200F0E0EC59FF4F80816A
:1001400093DF809162008F5F80936200813011F4B1
:10015000929A0BC0823011F4949A07C0833011F444
:10016000959A03C0939A10926200FF91EF91BF910C
:10017000AF919F918F917F916F915F914F913F913F
:100180002F910F900FBE0F901F901895CF93DF9374
:10019000E4E6F0E020E0CAE0D0E03FEF009721F491
:1001A000222311F0308304C0BE01AAD28083CB0188
:1001B0002F5F3196243091F7DF91CF91089580938E
:1001C0006100089580916000882319F0109260000A
:1001D00081E008958FEF87BB81BB18BA12BA81E026
:1001E000EEDF30DF60E970ED83E090E0E6D1EADF3A
:1001F000882331F0ABD1B2D1882311F081E0DFDF69
:10020000D9D18823A1F3B1D18AD1F1CF8C3A09F4A5
:10021000C8C08A3A09F4C7C0893A09F4C6C0853A09
:1002200009F4C5C0833A09F4C4C0863A09F4C3C0CE
:100230008C3909F4C2C08A3909F4C1C0893909F47A
:10024000C0C0853909F4BFC0833909F4BEC08639FE
:1002500009F4BDC08E3809F4BCC08D3809F4BBC0A8
:100260008B3809F4BAC0813B09F4B9C0823B09F468
:10027000B8C0843B09F4B7C0883B09F4B6C08437E2
:1002800009F4B5C0823709F4B4C08C3609F4B3C0A0
:100290008A3609F4B2C0893609F4B1C0853609F44A
:1002A000B0C0833609F4AFC0863609F4AEC08C35D1
:1002B00009F4ADC08A3509F4ACC0893509F4ABC086
:1002C000853509F4AAC0833509F4A9C0863509F437
:1002D000A8C08E3409F4A7C08D3409F4A6C08B34AD
:1002E00009F4A5C0873409F4A4C0813709F4A3C078
:1002F000883E09F4A2C0843E09F4A1C0823E09F4FC
:10030000A0C0813D09F49FC0893C09F49EC0853C92
:1003100009F49DC0883D09F49CC0843D09F49BC04C
:10032000823D09F49AC08A3C09F499C0863C09F4DC
:1003300098C08C3C09F497C0883709F496C087317F
:1003400009F495C08B3109F494C08D3109F493C040
:100350008E3109F492C08E3209F491C0863309F4CB
:1003600090C08A3309F48FC0873209F48EC08B3273
:1003700009F48DC08D3209F48CC0853309F48BC02B
:10038000893309F48AC0833309F489C08F3009F4B2
:1003900088C0803F09F487C0813E09F486C08FEF92
:1003A000089580E0089581E0089582E0089583E053
:1003B000089584E0089585E0089586E0089587E033
:1003C000089588E0089589E008958AE008958BE013
:1003D00008958CE008958DE008958EE008958FE0F3
:1003E000089580E1089581E1089582E1089583E10F
:1003F000089584E1089585E1089586E1089587E1EF
:10040000089588E1089589E108958AE108958BE1CE
:1004100008958CE108958DE108958EE108958FE1AE
:10042000089580E2089581E2089582E2089583E2CA
:10043000089584E2089585E2089586E2089587E2AA
:10044000089588E2089589E208958AE208958BE28A
:1004500008958CE208958DE208958EE208958FE26A
:10046000089580E3089581E3089582E3089583E386
:10047000089584E3089585E3089586E3089587E366
:10048000089588E3089589E308958AE308958BE346
:1004900008958CE308958DE308958EE308958FE326
:1004A000089581EF089580EF089582EF0895809177
:1004B0006800823099F580916B00282F2C73269567
:1004C000269590916C009F738295880F880F807C91
:1004D000890F2130E1F4982F907C903871F48F735C
:1004E00090E0982F88272091690030916A00820F50
:1004F000931F90936A008093690080E060DE809192
:10050000690090916A0042DE1092630008952230E3
:1005100029F490E090936A0080936900089576DE54
:10052000282F207F90916800203F29F49111BFDF90
:10053000109268000895943040F4E92FF0E0E559F6
:10054000FF4F80839F5F90936800089580916300C0
:10055000893C18F48F5F80936300089581E0909147
:100560006300993C08F480E0089580919A00882304
:10057000E1F3F894E091990080919A00E81B909142
:10058000990080919A00981708F4EC5DF0E0EB5820
:10059000FF4F808190919A00911105C090919A002F
:1005A0009C5D90939A0090919A00915090939A003C
:1005B0007894089580919A000895CF92DF92EF92F7
:1005C000FF926B017C011BB888E98AB928EF3FEFE5
:1005D0004FEF5FEFC701B6017AD07E5E85489F4F2F
:1005E000A7019601E4E0220F331F441F551FEA952F
:1005F000D1F79AD0BB27A52F942F832F82B929B981
:10060000E5E7F0E015A214A210927400FF90EF90BD
:10061000DF90CF9008951F920F920FB60F92112482
:100620008F939F93EF93FF93E091730080917400F9
:10063000E81B9091730080917400981708F4EC5FA8
:10064000F0E0E159FF4F80818CB9809174008150B6
:100650008093740080917400811101C05598FF91BE
:10066000EF919F918F910F900FBE0F901F90189553
:100670001F920F920FB60F9211248F939F93EF93B7
:10068000FF938CB190919A00943218F010929A00D6
:1006900015C0E091990091E09E0F90939900F0E0D1
:1006A000EB58FF4F808380919900843210F01092B4
:1006B000990080919A008F5F80939A00FF91EF914B
:1006C0009F918F910F900FBE0F901F901895EE275E
:1006D000FF27AA27BB2708C0A20FB31FE41FF51FDF
:1006E000220F331F441F551F969587957795679561
:1006F00098F37040A9F7009799F7BD01CF010895CD
:10070000AA1BBB1B51E107C0AA1FBB1FA617B70737
:1007100010F0A61BB70B881F991F5A95A9F7809553
:100720009095BC01CD010895A1E21A2EAA1BBB1B16
:10073000FD010DC0AA1FBB1FEE1FFF1FA217B307AD
:10074000E407F50720F0A21BB30BE40BF50B661FC3
:10075000771F881F991F1A9469F760957095809587
:1007600090959B01AC01BD01CF010895F894FFCF96
:00000001FF
