:100000003AC047C046C045C06CC043C042C02AC2C7
:10001000FCC13FC03EC03DC03CC03BC03AC039C03F
:1000200038C037C036C0A0BEC2929C9181BA8090C1
:10003000C8E9A090DFACAAA9A5A3A69C9A9995931C
:10004000968E8D8BB1B2B4B874726C6A6965636652
:100050005C5A595553564E4D4B4771E8E4E2D1C9AD
:10006000C5D8D4D2C9C6CC78171B1D1E2E363A2748
:100070002B2D3539330011241FBECFEDCDBF20E02D
:10008000A0E6B0E001C01D92A13AB207E1F798D016
:1000900067C2B6CF1FBC8BE08EBD80E890E09BBDF1
:1000A0008ABD8AB59BB59695879599BD88BD89B758
:1000B000806489BF7894089598B39F6798BB8F3FF9
:1000C00079F0813818F0E9E8E80F03C08A3040F48D
:1000D000E82FF0E0EA5DFF4FE49188B3E823E8BB46
:1000E00008951F920F920FB60F9211242F933F93F2
:1000F0004F935F936F937F938F939F93AF93BF9330
:10010000EF93FF9381E08093600082B3837C82BB96
:1001100080916100882321F088B3807888BB1BC060
:10012000E0916200F0E0EB59FF4F8081C5DF8091E4
:1001300062008F5F80936200813011F4929A0BC04D
:10014000823011F4949A07C0833011F4959A03C059
:10015000939A10926200FF91EF91BF91AF919F919E
:100160008F917F916F915F914F913F912F910F9060
:100170000FBE0F901F901895CF93DF93E5E6F0E048
:1001800020E0CAE0D0E03FEF009721F4222311F0F5
:10019000308304C0BE01AED18083CB012F5F319686
:1001A000243091F7DF91CF910895809361000895F5
:1001B00080916000882319F01092600081E008951A
:1001C0008FEF87BB81BB18BA12BA81E0EEDF62DF26
:1001D00060E970ED83E090E0EAD0EADF882331F057
:1001E000A6D0B3D0882311F081E0DFDFDDD08823F3
:1001F000A1F3B5D085D0F1CF8F3081F0803F81F071
:10020000813E81F0E5E3F0E090E02491821761F017
:100210009F5F31969034C9F78FEF089581EF08956D
:1002200080EF089582EF0895892F08959C018091B1
:100230006B0090916C002817390741F481E04091E0
:100240006D0050916E004217530709F080E0089549
:1002500080916900823009F052C080917100282F8E
:100260002C7326952695909172009F738295880F26
:10027000880F807C890F2130D9F5982F907C903899
:1002800071F48F7390E0982F882720916F00309140
:100290007000820F931F9093700080936F00809185
:1002A0006F0090917000C2DF882359F080E07DDFFD
:1002B00080916F00909170005FDF10926400109247
:1002C000630080916A00E82FF0E0EE0FFF1FE55910
:1002D000FF4F20916F0030917000318320838F5F3A
:1002E000823018F480936A00089510926A0008958D
:1002F000223029F490E09093700080936F0008956D
:100300007BDF282F207F90916900203F29F49111F5
:100310009FDF109269000895943040F4E92FF0E0D7
:10032000EF58FF4F80839F5F9093690008958091FD
:10033000630090916400893E23E0920728F40196BF
:100340009093640080936300089581E0209163009E
:1003500030916400293E334008F480E00895809194
:10036000A0008823E1F3F894E0919F008091A00021
:10037000E81B90919F008091A000981708F4EC5D15
:10038000F0E0E558FF4F80819091A000911105C0E9
:100390009091A0009C5D9093A0009091A00091503E
:1003A0009093A000789408958091A0000895CF9232
:1003B000DF92EF92FF926B017C011BB888E98AB94A
:1003C00028EF3FEF4FEF5FEFC701B6017AD07E5EB7
:1003D00085489F4FA7019601E4E0220F331F441F79
:1003E000551FEA95D1F79AD0BB27A52F942F832FBD
:1003F00082B929B9EBE7F0E015A214A210927A00B5
:10040000FF90EF90DF90CF9008951F920F920FB65C
:100410000F9211248F939F93EF93FF93E0917900B4
:1004200080917A00E81B9091790080917A0098176A
:1004300008F4EC5FF0E0EB58FF4F80818CB98091BD
:100440007A00815080937A0080917A00811101C0F6
:100450005598FF91EF919F918F910F900FBE0F9044
:100460001F9018951F920F920FB60F9211248F9321
:100470009F93EF93FF938CB19091A000943218F06A
:100480001092A00015C0E0919F0091E09E0F909304
:100490009F00F0E0E558FF4F808380919F008432F9
:1004A00010F010929F008091A0008F5F8093A000B9
:1004B000FF91EF919F918F910F900FBE0F901F9022
:1004C0001895EE27FF27AA27BB2708C0A20FB31F46
:1004D000E41FF51F220F331F441F551F9695879564
:1004E0007795679598F37040A9F7009799F7BD0144
:1004F000CF010895AA1BBB1B51E107C0AA1FBB1F58
:10050000A617B70710F0A61BB70B881F991F5A959F
:10051000A9F780959095BC01CD010895A1E21A2E0E
:10052000AA1BBB1BFD010DC0AA1FBB1FEE1FFF1F97
:10053000A217B307E407F50720F0A21BB30BE40BE7
:10054000F50B661F771F881F991F1A9469F760952E
:100550007095809590959B01AC01BD01CF010895E8
:04056000F894FFCF3D
:00000001FF
