:1000000012C01FC01EC01DC089C01BC01AC06EC355
:1000100033C317C016C015C014C013C012C011C01E
:1000200010C00FC00EC011241FBECFEDCDBF20E009
:10003000A0E6B0E001C01D92AB39B207E1F7DED017
:10004000C2C3DECF1FBC8BE08EBD80E890E09BBDBD
:100050008ABD8AB59BB59695879599BD88BD89B7A8
:10006000806489BF7894089598B39F6798BB8F3F49
:1000700009F453C0811104C088B3807A88BB089505
:10008000813021F488B38E7B88BB0895823021F4BF
:1000900088B3827C88BB0895833021F488B3827949
:1000A00088BB0895843021F488B38C7988BB089587
:1000B000853021F488B3817988BB0895863021F496
:1000C00088B3817888BB0895873021F488B38A7B10
:1000D00088BB0895883021F488B3807888BB089560
:1000E000893021F488B3807988BB0895813821F460
:1000F00088B3887C88BB0895823821F488B3897ED0
:1001000088BB0895833821F488B3807A88BB08952A
:10011000843819F488B3807988BB08951F920F92B0
:100120000FB60F9211242F933F934F935F936F93CA
:100130007F938F939F93AF93BF93EF93FF9381E050
:100140008093600082B3837C82BB809161008823AE
:1001500021F088B3807888BB1BC0E0916200F0E09A
:10016000EC59FF4F808180DF809162008F5F809328
:100170006200813011F4929A0BC0823011F4949A8B
:1001800007C0833011F4959A03C0939A10926200CD
:10019000FF91EF91BF91AF919F918F917F916F915F
:1001A0005F914F913F912F910F900FBE0F901F9035
:1001B0001895CF93DF93E4E6F0E020E0CAE0D0E0CA
:1001C0003FEF009721F4222311F0308305C0BE01D8
:1001D000C4D28083862F972F2F5F3196243089F7E2
:1001E000DF91CF9108958093610008958091600020
:1001F000882319F01092600081E008958FEF87BB8B
:1002000081BB18BA12BA81E0EEDF1CDF60E970ED45
:1002100083E090E0F0D1EADF882331F0AFD1B6D1AE
:10022000882311F081E0DFDFE3D18823A1F3B5D18A
:100230008CD1F1CF8C3A09F4C8C08A3A09F4C7C00E
:10024000893A09F4C6C0853A09F4C5C0833A09F46D
:10025000C4C0863A09F4C3C08C3909F4C2C08A39D3
:1002600009F4C1C0893909F4C0C0853909F4BFC097
:10027000833909F4BEC0863909F4BDC08E3809F44B
:10028000BCC08D3809F4BBC08B3809F4BAC0813BBF
:1002900009F4B9C0823B09F4B8C0843B09F4B7C083
:1002A000883B09F4B6C0843709F4B5C0823709F435
:1002B000B4C08C3609F4B3C08A3609F4B2C08936AA
:1002C00009F4B1C0853609F4B0C0833609F4AFC073
:1002D000863609F4AEC08C3509F4ADC08A3509F410
:1002E000ACC0893509F4ABC0853509F4AAC08335A3
:1002F00009F4A9C0863509F4A8C08E3409F4A7C052
:100300008D3409F4A6C08B3409F4A5C0873409F4F0
:10031000A4C0813709F4A3C0883E09F4A2C0843E7A
:1003200009F4A1C0823E09F4A0C0813D09F49FC038
:10033000893C09F49EC0853C09F49DC0883D09F4C0
:100340009CC0843D09F49BC0823D09F49AC08A3C5C
:1003500009F499C0863C09F498C08C3C09F497C014
:10036000883709F496C0873109F495C08B3109F4B8
:1003700094C08D3109F493C08E3109F492C08E324D
:1003800009F491C0863309F490C08A3309F48FC010
:10039000873209F48EC08B3209F48DC08D3209F496
:1003A0008CC0853309F48BC0893309F48AC0833348
:1003B00009F489C08F3009F488C0803F09F487C0F0
:1003C000813E09F486C08FEF089580E0089581E0B2
:1003D000089582E0089583E0089584E0089585E01B
:1003E000089586E0089587E0089588E0089589E0FB
:1003F00008958AE008958BE008958CE008958DE0DB
:1004000008958EE008958FE0089580E1089581E1D8
:10041000089582E1089583E1089584E1089585E1D6
:10042000089586E1089587E1089588E1089589E1B6
:1004300008958AE108958BE108958CE108958DE196
:1004400008958EE108958FE1089580E2089581E294
:10045000089582E2089583E2089584E2089585E292
:10046000089586E2089587E2089588E2089589E272
:1004700008958AE208958BE208958CE208958DE252
:1004800008958EE208958FE2089580E3089581E350
:10049000089582E3089583E3089584E3089585E34E
:1004A000089586E3089587E3089588E3089589E32E
:1004B00008958AE308958BE308958CE308958DE30E
:1004C00008958EE308958FE3089581EF089580EFF6
:1004D000089582EF0895809168008230A9F5EBE6D7
:1004E000F0E08081282F2C732695269591819F73AB
:1004F0008295880F880F807C980F2130E9F4892F2E
:10050000807C803879F49F73892F90E0982F88271A
:100510002091690030916A00820F931F90936A00C6
:100520008093690080E05FDE8091690090916A00AD
:1005300040DE109263000895223031F4892F90E05C
:1005400090936A0080936900089574DE982F907FDD
:10055000903F39F4809168008111BDDF10926800EE
:10056000089590916800943040F4E92FF0E0E55947
:10057000FF4F80839F5F9093680008958091630090
:10058000893C18F48F5F80936300089581E0909117
:100590006300993C08F480E00895E5E7F0E085A168
:1005A0008823E9F3F894A5E7B0E09496EC9194974A
:1005B00095968C919597E81B94969C919497959617
:1005C0008C91981708F4EC5DF0E0EB58FF4F8081B8
:1005D00090919A00911105C0E5E7F0E095A19C5D2E
:1005E00095A3E5E7F0E095A1915095A3789408953F
:1005F00080919A0008950F931F938B019C011BB863
:1006000088E98AB980E090E0DC01801B910BA20BA5
:10061000B30B880F991FAA1FBB1F880F991FAA1F12
:10062000BB1F880F991FAA1FBB1FBC01CD017E5E97
:1006300085489F4F000F111F221F331F000F111FEE
:10064000221F331FA9019801220F331F441F551F7A
:10065000220F331F441F551F94D0BB27A52F942F63
:10066000832F82B929B9E5E7F0E015A214A2109210
:1006700074001F910F9108951F920F920FB60F9261
:1006800011248F939F93AF93BF93EF93FF93AFE6A4
:10069000B0E01496EC91149715968C911597E81B81
:1006A00014969C91149715968C91981708F4EC5F0A
:1006B000F0E0AFE6B0E0E159FF4F80818CB91596CC
:1006C0008C911597815015968C93159715968C9152
:1006D000811101C05598FF91EF91BF91AF919F910A
:1006E0008F910F900FBE0F901F9018951F920F9231
:1006F0000FB60F9211248F939F93AF93BF93EF93F5
:10070000FF939CB180919A00843218F010929A0065
:1007100019C0A5E7B0E09496EC91949781E08E0F14
:1007200094968C939497F0E0EB58FF4F90839496B7
:100730008C91843210F010929900E5E7F0E085A1E9
:100740008F5F85A3FF91EF91BF91AF919F918F91A3
:100750000F900FBE0F901F901895AA1BBB1B51E165
:1007600007C0AA1FBB1FA617B70710F0A61BB70B21
:10077000881F991F5A95A9F780959095BC01CD01C6
:100780000895A1E21A2EAA1BBB1BFD010DC0AA1FD2
:10079000BB1FEE1FFF1FA217B307E407F50720F0EA
:1007A000A21BB30BE40BF50B661F771F881F991F65
:1007B0001A9469F760957095809590959B01AC01AE
:0A07C000BD01CF010895F894FFCFAA
:00000001FF
